:100000000C9463000C948B000C948B000C948B006C
:100010000C948B000C948B000C948B000C948B0034
:100020000C948B000C948B000C948B000C948B0024
:100030000C948B000C948B000C948B000C948B0014
:100040000C941F030C948B000C9403060C9435063F
:100050000C948B000C948B000C948B000C948B00F4
:100060000C948B000C948B0000000008000201002F
:100070000003040700000000000000000102040863
:100080001020408001020408102001020408102002
:10009000040404040404040402020202020203032E
:1000A00003030303000000002300260029000000D2
:1000B0000000250028002B0000000000240027007D
:1000C0002A009201650611241FBECFEFD8E0DEBFE3
:1000D000CDBF11E0A0E0B1E0E2E5F2E102C00590A1
:1000E0000D92AA34B107D9F722E0AAE4B1E001C029
:1000F0001D92A830B207E1F710E0C6ECD0E004C0D2
:100100002297FE010E942309C23CD107C9F70E9431
:10011000A9070C9427090C940000CF92DF92EF926C
:10012000FF920F931F93E82FF92F05C0015011097B
:100130002109310961F1908196239417B9F305C023
:10014000015011092109310911F19081962394136D
:10015000F7CFC12CD12CE12CF12C0AC08FEFC81A9B
:10016000D80AE80AF80A0C151D052E053F0579F096
:1001700080818623841791F36C2D7D2D8E2D9F2DEC
:100180001F910F91FF90EF90DF90CF90089560E066
:1001900070E080E090E01F910F91FF90EF90DF9072
:1001A000CF90089526E040E855E260E070E08BE6ED
:1001B00091E00E94A10561E088E00E94230460E0D4
:1001C00089E00E94230420E044E064E18AE491E0B5
:1001D0000E945B0241E060E08AE491E00E944102FB
:1001E00060E971E080E090E00E948C038AE491E095
:1001F0000E943A0268EE73E080E090E00C948C0379
:10020000CF92DF92EF92FF9260E088E00E945C0460
:1002100082E090E00E94B40361E088E00E945C0408
:100220008AE090E00E94B40360E088E00E945C04F1
:1002300020E432E44FE050E061E089E00E94920463
:1002400022E030E040E050E00E940209CA01B9011A
:100250000E9454082DEC3CEC48EE51E40E94B90792
:100260000E9421086B017C0188E1C816D104E104D9
:10027000F10434F58AE491E00E943A0241E060E042
:100280008AE491E00E94410261E071E08AE491E039
:100290000E94E60660E071E08BE691E00E94F306C2
:1002A00064EF71E080E090E00E948C038AE491E0CA
:1002B0000E943A026CE271E080E090E00E948C03C0
:1002C00040E061E08AE491E00E94410261E171E076
:1002D0008AE491E00E94E6062AE030E0B701A60138
:1002E0008AE491E00E945E076DE171E08AE491E0AA
:1002F0000E94E6062AE030E0B701A6018BE691E015
:100300000E945E076CE171E08BE691E00E94F306CB
:1003100064EF71E080E090E0FF90EF90DF90CF908D
:100320000C948C03CF92EF920F9382E0C82E93E04F
:10033000E92E04E025E046E067E08AE491E00E94CF
:10034000F9020F91EF90CF900895CF93DF93EC01D6
:1003500060E08E810E945C0481E090E00E94B40322
:1003600061E08E810E945C0481E090E00E94B40311
:1003700060E08E810E945C0484E690E0DF91CF9182
:100380000C94B403EF92FF920F931F93CF93DF93DC
:100390008C01C0E0D0E0E62EF12CB7010C2E02C09B
:1003A000759567950A94E2F76170F801EC0FFD1FEF
:1003B00087810E945C042196C430D10571F7C80181
:1003C000DF91CF911F910F91FF90EF900C94A501B9
:1003D000EF92FF920F931F93CF93DF938C01C0E0B6
:1003E000D0E0E62EF12CB7010C2E02C07595679572
:1003F0000A94E2F76170F801EC0FFD1F87810E94FB
:100400005C042196C830D10571F7C801DF91CF9106
:100410001F910F91FF90EF900C94A5011F93CF9324
:10042000DF93EC01162F642F8C810E945C048D8178
:100430008F3F19F060E00E945C048F85612F84FF7C
:1004400006C0CE01DF91CF911F910C94E80170E0BE
:1004500084E0759567958A95E1F7CE010E94C20107
:10046000612FCE01DF91CF911F910C94C20140E02A
:100470000C940E0261E00E94370280ED97E00C942C
:10048000B403443008F043E0FC012389421710F024
:100490004FEF420FFC01E40FF11D2489260F206865
:1004A000622F0C943702FC016089262F2460208B78
:1004B0006C600C9437020F931F93CF93DF93EC0182
:1004C000423018F08F8588608F874B8B1C8A80E4C0
:1004D0008D8B6E8B70E0605C7F4F6F8B222329F0D9
:1004E000413019F48F8584608F8761E08C810E9490
:1004F00023048D818F3F19F061E00E94230461E0A5
:100500008E810E94230400E010E08F8584FF03C0E9
:1005100088E090E002C084E090E00817190754F4E6
:10052000FE01E00FF11F61E087810E9423040F5F4D
:100530001F4FEBCF80E593EC0E94B40360E08C8109
:100540000E945C0460E08E810E945C048D818F3F7C
:1005500019F060E00E945C046F8564FD1DC063E0DB
:10056000CE010E94C20184E991E10E94B40363E0DC
:10057000CE010E94C20184E991E10E94B40363E0CC
:10058000CE010E94C20186E990E00E94B40362E0BD
:10059000CE010E94C20116C06062CE010E943702E5
:1005A00084E991E10E94B4036F856062CE010E94EC
:1005B000370286E990E00E94B4036F856062CE0145
:1005C0000E9437026F856062CE010E94370284E08C
:1005D000888BCE010E945302CE010E943A0282E033
:1005E000898B66E0CE01DF91CF911F910F910C9422
:1005F0003702CF92EF920F93FC011382128284E2B2
:1006000091E09183808364838FEF85834683278382
:100610000087E186C286138614861586168617869D
:1006200020E041E060E1CF010F91EF90CF900C947A
:100630005B0241E00E940E0281E090E008951F926B
:100640000F920FB60F9211242F933F938F939F9386
:10065000AF93BF938091630190916401A091650174
:10066000B09166013091620123E0230F2D3720F411
:100670000196A11DB11D05C026E8230F0296A11DFC
:10068000B11D209362018093630190936401A09354
:100690006501B09366018091670190916801A09116
:1006A0006901B0916A010196A11DB11D8093670196
:1006B00090936801A0936901B0936A01BF91AF91D3
:1006C0009F918F913F912F910F900FBE0F901F9090
:1006D00018953FB7F8948091670190916801A091B7
:1006E0006901B0916A0126B5A89B05C02F3F19F09A
:1006F0000196A11DB11D3FBF6627782F892F9A2F24
:10070000620F711D811D911D42E0660F771F881FCA
:10071000991F4A95D1F70895CF92DF92EF92FF92F9
:10072000CF93DF936B017C010E946903EB01C1143D
:10073000D104E104F10489F00E94B8070E94690322
:100740006C1B7D0B683E734090F381E0C81AD108A2
:10075000E108F108C851DC4FEACFDF91CF91FF905B
:10076000EF90DF90CF9008958230910538F0880F98
:10077000991F880F991F05970197F1F708957894AD
:1007800084B5826084BD84B5816084BD85B5826096
:1007900085BD85B5816085BDEEE6F0E08081816034
:1007A0008083E1E8F0E01082808182608083808134
:1007B00081608083E0E8F0E0808181608083E1EB0C
:1007C000F0E0808184608083E0EBF0E080818160F4
:1007D0008083EAE7F0E080818460808380818260AA
:1007E0008083808181608083808180688083109293
:1007F000C1000895833081F028F4813099F082306F
:10080000A1F008958730A9F08830B9F08430D1F490
:10081000809180008F7D03C0809180008F778093CE
:100820008000089584B58F7702C084B58F7D84BD24
:1008300008958091B0008F7703C08091B0008F7DC4
:100840008093B0000895CF93DF9390E0FC01E458CB
:10085000FF4F2491FC01E057FF4F8491882349F119
:1008600090E0880F991FFC01E854FF4FA591B491C7
:1008700082559F4FFC01C591D4919FB7611108C06B
:10088000F8948C91209582238C93888182230AC0CE
:10089000623051F4F8948C91322F309583238C93ED
:1008A0008881822B888304C0F8948C91822B8C934E
:1008B0009FBFDF91CF9108950F931F93CF93DF9345
:1008C0001F92CDB7DEB7282F30E0F901E859FF4F6E
:1008D0008491F901E458FF4F1491F901E057FF4F5B
:1008E00004910023C9F0882321F069830E94FA0350
:1008F0006981E02FF0E0EE0FFF1FE255FF4FA59159
:10090000B4919FB7F8948C91611103C01095812325
:1009100001C0812B8C939FBF0F90DF91CF911F91CE
:100920000F9108950F931F93762F90E0FC01E458E8
:10093000FF4F6491FC01E057FF4FE4917111762F56
:10094000F0E0EE0FFF1FEC55FF4F85919491890168
:100950009A013F70472F0E948D0061157105810536
:10096000910531F06F5F7F4F8F4F9F4F9F7003C096
:1009700060E070E0CB011F910F910895FC01818D23
:10098000228D90E0805C9F4F821B91098F73992785
:100990000895FC01918D828D981731F0828DE80FBA
:1009A000F11D858D90E008958FEF9FEF0895FC0174
:1009B000918D828D981761F0828DDF01A80FB11D96
:1009C0005D968C91928D9F5F9F73928F90E00895BA
:1009D0008FEF9FEF08958BE596E0892B49F080E03B
:1009E00090E0892B29F00E945B0681110C94000095
:1009F0000895FC01848DDF01A80FB11DA35ABF4FDC
:100A00002C91848D90E001968F739927848FA6890D
:100A1000B7892C93A089B1898C9180648C93938D34
:100A2000848D981306C00288F389E02D80818F7D24
:100A300080830895CF93DF93EC01888D8823C9F0DC
:100A4000EA89FB89808185FD05C0A889B9898C91D7
:100A500086FD0FC00FB607FCF5CF808185FFF2CF72
:100A6000A889B9898C9185FFEDCFCE010E94F90448
:100A7000E7CFDF91CF910895CF92DF92FF920F934E
:100A80001F93CF93DF931F92CDB7DEB76C0181E048
:100A9000D60158968C9358975B969C915B975C9681
:100AA0008C915C97981307C05096ED91FC915197EB
:100AB000808185FD2EC0F601038D10E00F5F1F4F72
:100AC0000F731127F02EF601848DF81211C00FB6A6
:100AD00007FCF9CFD6015096ED91FC91519780819A
:100AE00085FFF1CFC60169830E94F9046981EBCFCC
:100AF000838DE80FF11DE35AFF4F6083D6015B96AB
:100B00000C935B975296ED91FC9153978081806294
:100B10000CC0D6015696ED91FC9157976083509684
:100B2000ED91FC91519780818064808381E090E019
:100B30000F90DF91CF911F910F91FF90DF90CF9099
:100B40000895BF92CF92DF92EF92FF92CF93DF93FF
:100B5000EC016A017B01B22EE889F98982E0808389
:100B6000411581EE580761057105A1F060E079E05B
:100B70008DE390E0A70196010E94E0082150310921
:100B8000410951095695479537952795211580E1DB
:100B9000380798F0E889F989108260E874E88EE1F6
:100BA00090E0A70196010E94E00821503109410917
:100BB00051095695479537952795EC85FD853083E6
:100BC000EE85FF852083188EEC89FD89B082EA8945
:100BD000FB89808180618083EA89FB8980818860CC
:100BE0008083EA89FB89808180688083EA89FB8928
:100BF00080818F7D8083DF91CF91FF90EF90DF9098
:100C0000CF90BF9008951F920F920FB60F921124AC
:100C10002F938F939F93EF93FF93E0917B01F0913C
:100C20007C018081E0918101F091820182FD12C0FE
:100C30009081809184018F5F8F732091850182174D
:100C400051F0E0918401F0E0E559FE4F958F8093DB
:100C5000840101C08081FF91EF919F918F912F912D
:100C60000F900FBE0F901F9018951F920F920FB606
:100C70000F9211242F933F934F935F936F937F9322
:100C80008F939F93AF93BF93EF93FF938BE691E086
:100C90000E94F904FF91EF91BF91AF919F918F91C5
:100CA0007F916F915F914F913F912F910F900FBE68
:100CB0000F901F9018958BE691E00E94BE0421E0F2
:100CC000892B09F420E0822F089510926E01109272
:100CD0006D0188EE93E0A0E0B0E080936F01909307
:100CE0007001A0937101B09372018CE291E0909336
:100CF0006C0180936B0185EC90E090937801809378
:100D0000770184EC90E090937A018093790180ECF4
:100D100090E090937C0180937B0181EC90E0909334
:100D20007E0180937D0182EC90E09093800180931E
:100D30007F0186EC90E09093820180938101109274
:100D40008401109285011092860110928701089506
:100D5000CF92DF92EF92FF920F931F93CF93DF9387
:100D60007C016A01EB0100E010E00C151D0571F03B
:100D70006991D701ED91FC910190F081E02DC701BF
:100D80000995892B19F00F5F1F4FEFCFC801DF9135
:100D9000CF911F910F91FF90EF90DF90CF9008952A
:100DA0006115710581F0DB010D900020E9F7AD01BF
:100DB00041505109461B570BDC01ED91FC9102801B
:100DC000F381E02D099480E090E008950C94D00622
:100DD000DC01ED91FC910190F081E02D099468E334
:100DE00071E00C94D0060F931F93CF93DF93EC0127
:100DF0000E94D0068C01CE010E94EF06800F911F49
:100E0000DF91CF911F910F9108958F929F92AF9292
:100E1000BF92CF92DF92EF92FF920F931F93CF93E7
:100E2000DF93CDB7DEB7A1970FB6F894DEBF0FBE44
:100E3000CDBF7C01C42EE52FCB01D22E19A221E01B
:100E40002D1510F02AE0D22E8E010F5D1F4F8D2C34
:100E5000912CA12CB12C6C2D7E2FA50194010E9408
:100E6000E0088C2DD29E80191124015011098A307E
:100E700014F4805D01C0895CF8018083211531057F
:100E80004105510521F0C22EE32FCA01E4CFB8017C
:100E9000C7010E94D006A1960FB6F894DEBF0FBE20
:100EA000CDBFDF91CF911F910F91FF90EF90DF9019
:100EB000CF90BF90AF909F908F900895CF92DF9288
:100EC000EF92FF920F931F93CF93DF93EC016A0190
:100ED0007B012115310579F4E881F9810190F081D8
:100EE000E02D642FDF91CF911F910F91FF90EF9034
:100EF000DF90CF9009942A303105E9F477FF1AC0CA
:100F00006DE20E94E8068C0144275527BA014C196E
:100F10005D096E097F092AE0CE010E940507800F56
:100F2000911FDF91CF911F910F91FF90EF90DF9074
:100F3000CF9008952AE0B701A601CE01DF91CF91AD
:100F40001F910F91FF90EF90DF90CF900C940507C9
:100F500008950E94BF030E94A8070E94D200CBEE12
:100F6000D4E00E9400012097E1F30E94EB04F9CF46
:100F700008950CD0EBC0E3D040F0DAD030F021F48B
:100F80005F3F19F0CCC0511115C1CFC0F0D098F31C
:100F90009923C9F35523B1F3951B550BBB27AA27FA
:100FA00062177307840738F09F5F5F4F220F331F6C
:100FB000441FAA1FA9F333D00E2E3AF0E0E830D038
:100FC00091505040E695001CCAF729D0FE2F27D03B
:100FD000660F771F881FBB1F261737074807AB0709
:100FE000B0E809F0BB0B802DBF01FF2793585F4F7E
:100FF0002AF09E3F510568F092C0DCC05F3FECF3E1
:10100000983EDCF3869577956795B795F7959F5F42
:10101000C9F7880F911D9695879597F90895E1E096
:10102000660F771F881FBB1F621773078407BA07F5
:1010300020F0621B730B840BBA0BEE1F88F7E09550
:10104000089504D06894B111B5C0089598D088F07F
:101050009F5790F0B92F9927B751A0F0D1F0660FA4
:10106000771F881F991F1AF0BA95C9F712C0B130BF
:1010700081F09FD0B1E008959CC0672F782F88271A
:10108000B85F39F0B93FCCF3869577956795B395FE
:10109000D9F73EF490958095709561957F4F8F4F6D
:1010A0009F4F0895E89409C097FB3EF49095809572
:1010B000709561957F4F8F4F9F4F9923A9F0F92F1E
:1010C00096E9BB279395F695879577956795B7959C
:1010D000F111F8CFFAF4BB0F11F460FF1BC06F5F82
:1010E0007F4F8F4F9F4F16C0882311F096E911C094
:1010F000772321F09EE8872F762F05C0662371F0B5
:1011000096E8862F70E060E02AF09A95660F771FC8
:10111000881FDAF7880F9695879597F9089597F9BC
:101120009F6780E870E060E008959FEF80EC08958D
:1011300000240A94161617061806090608950024B6
:101140000A9412161306140605060895092E039430
:10115000000C11F4882352F0BB0F40F4BF2B11F4A4
:1011600060FF04C06F5F7F4F8F4F9F4F089557FD03
:101170009058440F551F59F05F3F71F04795880F05
:1011800097FB991F61F09F3F79F08795089512169C
:1011900013061406551FF2CF4695F1DF08C0161648
:1011A00017061806991FF1CF8695710561050894F9
:1011B0000895E894BB2766277727CB0197F9089510
:1011C000A1E21A2EAA1BBB1BFD010DC0AA1FBB1F4B
:1011D000EE1FFF1FA217B307E407F50720F0A21BBD
:1011E000B30BE40BF50B661F771F881F991F1A942A
:1011F00069F760957095809590959B01AC01BD0154
:10120000CF010895052E97FB1EF400940E94190942
:1012100057FD07D00E94E00807FC03D04EF40C9461
:10122000190950954095309521953F4F4F4F5F4F8D
:10123000089590958095709561957F4F8F4F9F4F42
:101240000895EE0FFF1F0590F491E02D0994F89496
:02125000FFCFCE
:1012520020487572646C65204465746563746564C6
:101262000044697374616E63653D200020636D0004
:10127200000000001903A806000000003C05A806B3
:10128200BE04D704C9041A050D0A006E616E006916
:0A1292006E66006F7666002E000005
:107E0000112484B714BE81FFF0D085E080938100F7
:107E100082E08093C00088E18093C10086E0809377
:107E2000C20080E18093C4008EE0C9D0259A86E02C
:107E300020E33CEF91E0309385002093840096BBD3
:107E4000B09BFECF1D9AA8958150A9F7CC24DD24C4
:107E500088248394B5E0AB2EA1E19A2EF3E0BF2EE7
:107E6000A2D0813461F49FD0082FAFD0023811F036
:107E7000013811F484E001C083E08DD089C08234E0
:107E800011F484E103C0853419F485E0A6D080C0E4
:107E9000853579F488D0E82EFF2485D0082F10E0AE
:107EA000102F00270E291F29000F111F8ED06801E7
:107EB0006FC0863521F484E090D080E0DECF843638
:107EC00009F040C070D06FD0082F6DD080E0C81688
:107ED00080E7D80618F4F601B7BEE895C0E0D1E017
:107EE00062D089930C17E1F7F0E0CF16F0E7DF06D8
:107EF00018F0F601B7BEE89568D007B600FCFDCFD4
:107F0000A601A0E0B1E02C9130E011968C91119780
:107F100090E0982F8827822B932B1296FA010C0160
:107F200087BEE89511244E5F5F4FF1E0A038BF0790
:107F300051F7F601A7BEE89507B600FCFDCF97BE46
:107F4000E89526C08437B1F42ED02DD0F82E2BD052
:107F50003CD0F601EF2C8F010F5F1F4F84911BD097
:107F6000EA94F801C1F70894C11CD11CFA94CF0C13
:107F7000D11C0EC0853739F428D08EE10CD085E9AC
:107F80000AD08FE07ACF813511F488E018D01DD067
:107F900080E101D065CF982F8091C00085FFFCCF94
:107FA0009093C60008958091C00087FFFCCF809118
:107FB000C00084FD01C0A8958091C6000895E0E648
:107FC000F0E098E1908380830895EDDF803219F02E
:107FD00088E0F5DFFFCF84E1DECF1F93182FE3DFCA
:107FE0001150E9F7F2DF1F91089580E0E8DFEE27F6
:047FF000FF270994CA
:027FFE00040479
:0400000300007E007B
:00000001FF
